:10000000E1C1000010C200000EC200000CC20000DE
:100010000AC2000008C2000006C2000004C20000BC
:1000200002C2000000C20000FEC100000C94F214E5
:10003000FAC10000F8C10000F6C10000F4C10000E0
:10004000F2C10000F0C10000EEC10000ECC10000F0
:10005000EAC10000E8C10000E6C100000C94001BEA
:10006000E2C100000C94B4190C948B19DCC100009F
:10007000DAC10000D8C10000D6C10000D4C1000020
:10008000D2C10000D0C10000CEC10000CCC1000030
:10009000CAC10000C8C10000C6C100000C94FE1B0C
:1000A000C2C10000C0C10000BEC10000BCC1000050
:1000B000BAC10000B8C10000B6C10000B4C1000060
:1000C000B2C10000B0C10000AEC10000ACC1000070
:1000D000AAC10000A8C10000A6C10000A4C1000080
:1000E000A2C10000973F993F9D3FAA3FB83FDA3F2A
:1000F000DA3FDA3FDA3FDA3FDA3FDA3FDA3FDA3F38
:10010000DA3FDA3F093E1A3E313E3D3E743E863EBE
:100110009F3EB33ECB3EDA3EDD3E013F063F023E10
:10012000003E273FDA3FDA3FDA3FDA3F043E8C3FBA
:10013000923FDA3FDA3FCB3F191A1C1A0B1A0F1AFB
:10014000131A531A201A241A2A1A2E1A321A381A73
:100150003C1A401A531A461A4A1A4E1A036EDB36D4
:100160003D9A9999993DABAAAA2A3E000000803F8A
:10017000084AD73B3BCE016E84BCBFFDC12F3D6C0E
:1001800074319ABD56833DDA3D00C77F11BED9E474
:10019000BB4C3E916BAAAABE000000803F072C7AA0
:1001A000A5BA6CC590DA3B9365FC8BBC53F810FD87
:1001B0003C5692834DBD879D3AB63DCBC9BF5BBED1
:1001C00073DA0FC93F05A84CCDB2D44EB93836A961
:1001D000020C50B9918688083CA6AAAA2ABE000043
:1001E00000803F07634236B79BD8A71A3968561874
:1001F000AEBAAB558C1D3CB7CC5763BD6DEDFD75EC
:100200003EF6177231BF000000803F08000000BEBC
:10021000922449123EABAAAA2ABECDCCCC4C3E00B9
:10022000000080BEABAAAAAA3E00000000BF0000EA
:1002300000803F0000000000084178D3BB4387D115
:10024000133D190E3CC3BD4282AD2B3E68EC827655
:10025000BED98FE1A93E4C80EFFFBE01C4FF7F3FB6
:1002600000000000000000002000230026002900FC
:100270002C002F00320000010000030106010901DB
:1002800000002100240027002A002D003000330048
:1002900001010000040107010A01000022002500FD
:1002A00028002B002E00310034000201000005015F
:1002B00008010B01050505050705080808080202E5
:1002C00002020A0A080804040404010101010101F0
:1002D00001010303030303030303040707070C0CD3
:1002E0000C0C0C0C0C0C020202020606060606069A
:1002F00006060B0B0B0B0B0B0B0B0102102020083F
:100300000810204010204080020102010804020170
:1003100001020408102040808040201008040201DF
:100320008004020180402010080402010804020138
:1003300001020408102040800102040810204080BF
:1003400000000A0B02090C0D0E080703040100004F
:10035000000000000000000000000000000000009D
:10036000000000000000000000000000121110005A
:10037000000000000000000000000000000000007D
:100380000000000000004E414E494E495459494E6C
:1003900046CDCCCC3D0AD7233C17B7D13877CC2BF0
:1003A000329595E6241FB14F0A000020410000C895
:1003B0004200401C4620BCBE4CCA1B0E5AAEC59D16
:1003C00074006C4011241FBECFEFD1E2DEBFCDBF61
:1003D00000E00CBF13E0A0E0B2E0ECE1FFE800E0D9
:1003E0000BBF02C007900D92A835B107D9F729E0DD
:1003F000A8E5B3E001C01D92A439B207E1F711E00E
:10040000C2EED1E000E006C021970109802FFE0175
:100410000E940841C13ED10780E00807A9F70E9469
:100420009A1F0C948C47ECCD9091750880917408BC
:10043000981750F4E92FF0E0EA58F74F208130E0A8
:100440009F5F9093750802C02FEF3FEFC901089599
:100450008091740890E020917508821B910908959D
:10046000CF92DF92EF92FF920F931F93CF93DF9380
:100470007C01262F972F8A018091BD08882391F057
:10048000C62FD72F6E01C40ED51ECC15DD0571F019
:100490006991D701ED91FC910190F081E02DC701A8
:1004A0001995F3CF642F822F0E942F1DC801DF9171
:1004B000CF911F910F91FF90EF90DF90CF90089513
:1004C000CF93DF931F92CDB7DEB769832091BD082C
:1004D0002223D1F02091E008203240F021E030E0EA
:1004E000FC013383228380E090E015C08091BE0838
:1004F000E82FF0E0E154F74F998190838F5F80936C
:10050000BE088093E00805C061E0CE0101960E941C
:100510002F1D81E090E00F90DF91CF9108950F9310
:100520001F93CF93DF9300D01F92CDB7DEB7890121
:1005300049835A836B837C830E94641F81E792E026
:100540000E94641F8091600390916103A0916203F7
:10055000B091630349815A816B817C81482359237F
:100560006A237B23452B462B472B21F48FE492E013
:100570000E94641FC8010F900F900F900F90DF91A1
:10058000CF911F910F910C945A1F8CE20C943B1E3B
:1005900042E050E00E94561FF8CFCF93DF932CE14A
:1005A000829FC0011124EC01CB5EDA4F6881798112
:1005B0008A819B81EDDF6C817D818E819F81E8DF67
:1005C000688579858A859B85DF91CF91E1CFCF9230
:1005D000DF92EF92FF926C01990FEE08FF08F7FE91
:1005E0000CC08DE20E943B1E66277727CB016C1959
:1005F0007D098E099F094AE003C04AE0C701B601A0
:100600000E94461EFF90EF90DF90CF90BECFCF9319
:10061000DF93D82FC0E0CD1729F080E090E0D7DF3E
:10062000CF5FF9CFDF91CF9108950F931F93CF93B1
:10063000DF93EB012CE1829FC00111248C010B5E42
:100640001A4FF8016081718182819381AE010E940D
:10065000BC0CAE014C5F5F4FF801648175818681EF
:1006600097810E94BC0CAE01485F5F4FF801608526
:10067000718582859385DF91CF911F910F910C94A5
:10068000BC0C0F931F93CF93DF93CDB7DEB72F979B
:100690000FB6F894DEBF0FBECDBF19821A821B823F
:1006A0001C82FE0135968BE0DF011D928A95E9F7E9
:1006B000198200E010E081EE98E00E949A18892BE0
:1006C00051F461E070E080E090E00E94C81A0F5F92
:1006D000112389F10EC081EE98E00E947818E1E0C4
:1006E000F0E0EC0FFD1FE10FF11D80831F5F00E0C4
:1006F00041F0FE01E10FF11D80818B3331F00A30B2
:1007000020F4812F90E00E97B4F2E1E0F0E0EC0FDE
:10071000FD1FE10FF11D1082CE0101960E94B84429
:100720002F960FB6F894DEBF0FBECDBFDF91CF91ED
:100730001F910F9108950A3008F4BDCFE6CFCF92F4
:10074000DF92EF92FF92CF93DF93809119028A3666
:1007500009F40FC20CF0B9C0823609F441C10CF0A3
:100760009BC0843209F4D1C30CF08CC0813209F4EF
:10077000D9C3833209F0ECC38FE090E00E94651F7B
:1007800084E592E00E94641F41E050E06DEC7CEC57
:100790008CE490E40E94901F87E692E00E94641F20
:1007A00084E792E00E945A1F8DE792E00E94641F46
:1007B0008DE892E00E945A1F84E992E00E94641F33
:1007C00088E090E00E94651F88EA92E00E94641F22
:1007D00084E090E00E94651F21EB32E041E050E0B0
:1007E00060E070E08AEB92E09ADE21EB32E042E0DA
:1007F00050E060E070E084EC92E091DE21EB32E0CA
:1008000048E050E060E070E082ED92E088DE21EBAD
:1008100032E044E050E060E070E08CED92E07FDE9A
:100820002EE333E040E150E060E070E089EE92E0DA
:1008300076DE2EE333E040E250E060E070E086EFE9
:1008400092E06DDE2EE333E040E450E060E070E0E3
:1008500084E093E064DE2EE333E040E850E060E0C3
:1008600070E084E193E05BDE2EE333E040E051E0B2
:1008700060E070E085E293E052DE85E393E00E9461
:100880005A1F58C3863309F459C3813609F49AC0F4
:10089000853209F05DC33CC3863609F4EDC06CF4C3
:1008A000843609F4B0C00CF0D9C082E076DE85E071
:1008B00074DE80912D0690E00BC3883609F402C1E6
:1008C0000CF012C1CBEBD4E0EDC0813709F434C297
:1008D0000CF063C08D3609F4BAC10CF057C08B36EA
:1008E00009F46BC18C3609F033C30E94B91520910D
:1008F0006A0330E040E050E060916B0370916C035C
:1009000080916D0390916E030E94EC40C9015FDEFF
:1009100010926B0310926C0310926D0310926E0391
:1009200020916A0330E040E050E060916F037091E5
:10093000700380917103909172030E94EC40C90191
:1009400046DE10926F0310927003109271031092A2
:10095000720320916A0330E040E050E0609173033D
:100960007091740380917503909176030E94EC401E
:10097000C9010E94651F10927303109274031092B4
:1009800075031092760310926A03E2C28F3609F45F
:1009900083C10CF083C183E09EC2853709F493C202
:1009A00034F4833709F40DC20CF4D2C182C2893702
:1009B00009F495C28A3709F494C2863709F0C8C28F
:1009C00089E089C280E0E9DD81E0E7DD6091150220
:1009D000709116028091170290911802D9DD7CC2A5
:1009E00083E0DBDD84E0D9DD86E0D7DD87E0D5DD9F
:1009F00060912E0670912F068091300690913106FD
:100A000042E050E095C288E0C8DD60910D0670912B
:100A10000E0680910F0690911006BADD80911302A8
:100A200090911402D4DD8091110290911202CFDDD9
:100A300080910F0290911002CADD80910D02909179
:100A40000E02C5DD6091090270910A0280910B02CD
:100A500090910C029DDD89E0A0DD3EC26091110500
:100A600070911205809113059091140591DD80918C
:100A70000F05909110052CC260910B0570910C052B
:100A800080910D0590910E0583DDC3EED4E0699150
:100A90007991899199917CDD85E0C330D807B9F7C8
:100AA00082E019C2699179918991999146E050E06B
:100AB0000E94561F8CE20E943B1E84E0CB3DD8076B
:100AC00089F70AC2C3E9D4E0699179918991999132
:100AD00046E050E00E94561F8CE20E943B1E84E0DC
:100AE000C33BD80789F7F8C160912A0470912B04A1
:100AF00080912C0490912D044BDD60912E04709117
:100B00002F04809130049091310442DD60913204D1
:100B100070913304809134049091350439DD6091F3
:100B2000360470913704809138049091390430DD97
:100B300060913A0470913B0480913C0490913D0493
:100B400027DD60913E0470913F04809140049091B4
:100B500041041EDDC2E4D4E06991799189919991B3
:100B60000E945F42CB0133DD84E0CE34D807A1F789
:100B700098C16091DC077091DD078091DE0790914C
:100B8000DF070E945F42CB0122DD6091E007709198
:100B9000E1078091E2079091E3070E945F42CB0159
:100BA00016DD6091E4077091E5078091E60790916A
:100BB000E7070E945F42CB01ADC16091870470914D
:100BC00088048091890490918A0446E050E00E9454
:100BD000561FDBDC60917703709178038091790375
:100BE00090917A0346E050E00E94561FCEDC60915F
:100BF0008B0470918C0480918D0490918E0446E05A
:100C000050E00E94561FC1DC60917B0370917C0311
:100C100080917D0390917E0346E050E00E94561F34
:100C2000B4DC60918F047091900480919104909154
:100C3000920446E050E00E94561FA7DC60917F03BB
:100C400070918003809181039091820322C0609112
:100C50007B0470917C0480917D0490917E0446E039
:100C600050E00E94561F91DC60917F0470918004D7
:100C7000809181049091820446E050E00E94561FCA
:100C800084DC609183047091840480918504909148
:100C9000860446E050E04CC184E01DC18091790497
:100CA00090917A0494DC80917704909178048FDCA1
:100CB00080917504909176048ADC80917304909100
:100CC000740485DC60916F047091700480917104EC
:100CD000909172045DDC60916B0470916C04809162
:100CE0006D0490916E0454DC609167047091680407
:100CF0008091690490916A044BDC80916504909125
:100D0000660465DC809163049091640460DC8091EA
:100D10006104909162045BDC80915F0490916004B7
:100D200056DC80915D0490915E0451DC80915B04FF
:100D300090915C044CDCD0C06091600370916103C1
:100D400080916203909163034AE00E94461EC4C0F2
:100D500060914E0470914F04809150049091510421
:100D600017DC609152047091530480915404909167
:100D700055040EDCC0902604D0902704E09028048F
:100D8000F090290420E030E0A901C701B6010E94DB
:100D9000414687FF0AC02BED3FE049EC50E4C70114
:100DA000B6010E9417416B017C0142E050E0C7018F
:100DB000B601DF91CF91FF90EF90DF90CF900C9430
:100DC000901F6091100470E080E090E04AE00E9483
:100DD000461EDBDB60914E0470914F0480915004FD
:100DE00090915104D5DB609152047091530480912D
:100DF000540490915504CCDBC0902604D090270475
:100E0000E0902804F090290420E030E0A901C70117
:100E1000B6010E94414687FF0AC02BED3FE049EC36
:100E200050E4C701B6010E9417416B017C01C70164
:100E3000B601AEDB2091060430910704409108040E
:100E40005091090460910A0470910B0480910C0484
:100E500090910D040E9416419BDB80910E0490E05E
:100E6000B6DBC2E1D4E089919991B1DB84E0C23272
:100E7000D807C9F7C6EFD3E089919991A8DB83E041
:100E8000CE3FD807C9F784E0C2DB80E090E09FDB6B
:100E900060910F0470E080E090E04AE00E94461EFE
:100EA00074DBDF91CF91FF90EF90DF90CF900C94A7
:100EB000571FC2E1D4E08991999189DB84E0C23265
:100EC000D807C9F7EECF80E090E081DB80E090E0CA
:100ED0000E94651F2FC09BDB0E94571F2BC08BE019
:100EE00015C02091060430910704409108045091E8
:100EF000090460910A0470910B0480910C04909194
:100F00000D040E94164144DB03C083E080DBC9CF9F
:100F100080E090E0DF91CF91FF90EF90DF90CF9055
:100F20000C94651F41E050E06DEC7CEC8CE490E4A7
:100F30000E94901F88E5809319020AC0C6EFD3E093
:100F40008991999144DB83E0CE3FD807C9F7C4CF9C
:100F5000DF91CF91FF90EF90DF90CF9008950F93A6
:100F60001F93CF93DF93082F10E08BDB2CE1209FA2
:100F7000E001219FD00D1124CB5EDA4F6883798385
:100F80008A839B837EDB6C837D838E839F8379DB67
:100F9000688779878A879B871C861D861E861F86A1
:100FA0001C8A1D8A1E8A1F8ADF91CF911F910F9183
:100FB0000895CF93C82F65DB26E636EE46EF52E460
:100FC0000E944146811106C010921004C0935A0439
:100FD00081E009C010925A0488EE93E090930802D1
:100FE0008093070280E0CF9108950F931F93CF93D2
:100FF000DF936091830370918403809185039091C6
:10100000860340E351E0B8D407E814E0F8016081BA
:1010100071818281938144E551E0AED4C7E7D3E08A
:10102000688179818A819B8140E551E0A5D4F801EE
:1010300064817581868197814CE551E09DD46C81F6
:101040007D818E819F8148E551E096D4F8016085CD
:1010500071858285938544E651E08ED468857985D3
:101060008A859B8540E651E0DF91CF911F910F91DA
:1010700083C4CF92DF92EF92FF920F931F93CF938F
:10108000DF93F89460E070E080E0CFDA64E270E033
:1010900081E0CBDA6CE070E083E0C7DA60E370E017
:1010A00084E0C3DA68E170E082E0BFDA6CE370E00C
:1010B00085E0BBDA68E470E086E0B7DA64E570E00A
:1010C00087E0B3DA609115027091160280911702E1
:1010D000909118024CE451E04FD460E670E088E053
:1010E000A4DA60910D0670910E0680910F06909122
:1010F000100640E451E040D46091090270910A0268
:1011000080910B0290910C024CE351E035D4609138
:10111000130270911402072E000C880B990B0E9489
:10112000474644E451E028D46091110270911202C4
:10113000072E000C880B990B0E94474648E451E0AB
:101140001BD460910F0270911002072E000C880BC7
:10115000990B0E94474648E351E00ED460910D027E
:1011600070910E02072E000C880B990B0E944746C7
:1011700044E351E001D46CE670E089E056DA609116
:101180007B0470917C0480917D0490917E0448E6FC
:1011900051E0F2D360917F047091800480918104CA
:1011A000909182044CE651E0E7D360918304709102
:1011B0008404809185049091860440E751E0DCD35B
:1011C00060912E0670912F06809130069091310625
:1011D00048E151E0D1D360910B0570910C058091ED
:1011E0000D0590910E054CE151E0C6D38BEBC82E56
:1011F00084E0D82E93E9E92E94E0F92E03EE14E072
:10120000CCE9D0E0F60161917191819191916F01EA
:10121000AE01B2D3F70161917191819191917F01FA
:10122000AE014C5F5F4FA8D3F8016191719181913C
:1012300091918F01AE01485F5F4F9ED32C96CC3FBA
:10124000D10501F760910F0570911005072E000C74
:10125000880B990B0E94474640E251E08DD3609184
:10126000110570911205809113059091140544E2C7
:1012700051E082D360910F0470E080E090E00E9422
:10128000454648E251E078D360912D0670E080E059
:1012900090E00E9445464CE251E06ED3609183039A
:1012A00070918403809185039091860340E351E01F
:1012B00063D344E151E06DEC7CEC8CE490E45CD3CE
:1012C00040E851E060E070E0CB0156D344E851E0E3
:1012D00060E070E0CB0150D36091790470917A04A2
:1012E000072E000C880B990B0E94474648E851E0F6
:1012F00043D360916F047091700480917104909158
:1013000072044CE851E038D360916B0470916C0426
:1013100080916D0490916E0440E951E02DD360916D
:101320006704709168048091690490916A0444E9AB
:1013300051E022D36091770470917804072E000C5D
:10134000880B990B0E94474648E951E015D36091FC
:10135000750470917604072E000C880B990B0E947F
:1013600047464CE951E008D36091730470917404CE
:10137000072E000C880B990B0E94474640EA51E06B
:10138000FBD26091650470916604072E000C880BF7
:10139000990B0E94474644EA51E0EED26091630403
:1013A00070916404072E000C880B990B0E9447462D
:1013B00048EA51E0E1D26091610470916204072E25
:1013C000000C880B990B0E9447464CEA51E0D4D29E
:1013D00060915F0470916004072E000C880B990BDC
:1013E0000E94474640EB51E0C7D260915D04709186
:1013F0005E04072E000C880B990B0E94474644EBB5
:1014000051E0BAD260915B0470915C04072E000C2D
:10141000880B990B0E94474648EB51E0ADD2789477
:10142000DF91CF911F910F91FF90EF90DF90CF90C0
:1014300008950F931F93CF93DF9340E050E068EC43
:1014400072E4409315055093160560931705709349
:10145000180500E010E026E133E40093190510932D
:101460001A0520931B0530931C0580E090E0AFEA3D
:10147000B3EC80931D0590931E05A0931F05B093B8
:1014800020054093310550933205609333057093E6
:1014900034050093350510933605209337053093B6
:1014A00038058093390590933A05A0933B05B09396
:1014B0003C0500E010E020E630E40093690510935D
:1014C0006A0520936B0530936C0510926D051092A0
:1014D0006E0510926F0510927005109271051092B2
:1014E0007205109273051092740500938505109390
:1014F0008605209387053093880510928905109200
:101500008A0510928B0510928C0510928D05109211
:101510008E0510928F051092900500E010E028E4EF
:1015200033E400934D0510934E0520934F053093FF
:10153000500500E010E020EA30E4009351051093DC
:10154000520520935305309354051092550510927F
:101550005605109257051092580500E010E020E45F
:1015600030E40093A1051093A2052093A3053093C6
:10157000A4050DEC1CEC2CEC3DE30093A5051093A9
:10158000A6052093A7053093A8051092A9051092EF
:10159000AA051092AB051092AC054093BD0550937F
:1015A000BE056093BF057093C0051092C1051092EF
:1015B000C2051092C3051092C4058093C50590938F
:1015C000C605A093C705B093C8054093D9055093AD
:1015D000DA056093DB057093DC051092DD0510924F
:1015E000DE051092DF051092E0058093E1059093EF
:1015F000E205A093E305B093E40580E090E0A0E865
:10160000BFE38093150290931602A0931702B09344
:10161000180280E090E0A8ECB1E48093F505909387
:10162000F605A093F705B093F8054AE959E969E191
:101630007FE34093F9055093FA056093FB0570939F
:10164000FC051092FD051092FE051092FF05109208
:10165000000680930D0690930E06A0930F06B0939C
:101660001006109211061092120610921306109294
:101670001406109215061092160610921706109274
:1016800018061092190610921A0610921B06109254
:101690001C068EEC9FEF9093100280930F0282E362
:1016A00090E090930E0280930D0200930902109334
:1016B0000A0220930B0230930C028AE590E090938B
:1016C0001402809313028AEF90E0909312028093A9
:1016D00011028CEC9CEBA5E1BDE380938704909311
:1016E0008804A0938904B0938A048FE49FEAA4E15C
:1016F000BDE380938B0490938C04A0938D04B093EE
:101700008E0480E69BE8ADE1BDEB80938F0490935F
:101710009004A0939104B093920480E090E0A0EC38
:10172000BFE380937B0490937C04A0937D04B093EB
:101730007E0480E090E8ADE4B3E480937F0490936E
:101740008004A0938104B093820480E090E0A4E040
:10175000B2EC8093830490938404A0938504B093A7
:10176000860480E090E0AAE7B4E480932E0690938C
:101770002F06A0933006B0933106E5E1F5E080E056
:1017800040E050E06AE774E4883021F0408F518FE8
:10179000628F738F8F5F7C968A30B1F780E090E024
:1017A000A0E8BFE380930B0590930C05A0930D0573
:1017B000B0930E058EE794E09093100580930F058B
:1017C0008AE098EEACE1B1EC8093830390938403BC
:1017D000A0938503B0938603EBEBF4E0C3E9D4E078
:1017E000A3EEB4E040E050E060E87FE34193519322
:1017F0006193719319921992199219924D935D9375
:101800006D937D9384E0EB3DF80781F780E090E0F5
:10181000A0E0BFE38093EB049093EC04A093ED046D
:10182000B093EE0410920F0481E080932D0680E0C7
:1018300090E0A0EAB0E48093110590931205A09384
:101840001305B093140581E090E090937A0480939F
:10185000790486E696E2AFE9B4E480936F0490934E
:101860007004A0937104B093720486E696E2AFE12F
:10187000B4E480936B0490936C04A0936D04B093D4
:101880006E0486E696E2AFE9B3E480936704909332
:101890006804A0936904B0936A048CED95E090937A
:1018A00078048093770490937604809375049093E2
:1018B00074048093730488EE93E09093660480939D
:1018C000650490936404809363049093620480930E
:1018D000610480ED97E09093600480935F0490939F
:1018E0005E0480935D0490935C0480935B04DF91BD
:1018F000CF911F910F910895EF92FF920F931F9335
:10190000CF93DF938B01E82EF12CCB0165D02CE136
:101910002E9DE0012F9DD00D1124CB5EDA4F688300
:1019200079838A839B83C801049656D06C837D8318
:101930008E839F83C80108964FD0688779878A87EE
:101940009B871C861D861E861F861C8A1D8A1E8AF2
:101950001F8ADF91CF911F910F91FF90EF90089513
:10196000409122024295440F440F407C4C5C64EF4E
:1019700087E790E00C944A1BCF92DF92EF92FF92A0
:101980000F931F93CF93DF9300D01F92CDB7DEB795
:101990006A0169837A838B839C83CE0101967C01E3
:1019A00000E010E0F70161917F01C8018C0D9D1DE1
:1019B0000E9465470F5F1F4F0430110599F70F9084
:1019C0000F900F900F90DF91CF911F910F91FF908B
:1019D000EF90DF90CF900895CF92DF92EF92FF9239
:1019E0000F931F93CF93DF9300D01F92CDB7DEB735
:1019F0007E0125E0E20EF11C8E010F5F1F4F6C018E
:101A0000C01AD10AC601800F911F0E945D47F801DC
:101A100081938F01EE15FF05A9F769817A818B818A
:101A20009C810F900F900F900F90DF91CF911F919D
:101A30000F91FF90EF90DF90CF9008952F923F92FB
:101A40004F925F926F927F928F929F92AF92BF92CE
:101A5000CF92DF92EF92FF920F931F93CF93DF937A
:101A6000CDB7DEB728970FB6F894DEBF0FBECDBF57
:101A70002B013C018091790490917A046091730468
:101A80007091740478876F83709161047B83E09117
:101A90006204EC8360917504709176047A836983A3
:101AA000709163047D83E0916404EE832090770459
:101AB00030907804019709F0EEC0C801B7014901E0
:101AC0005A017301620120916704309168044091CA
:101AD000690450916A040E94A6462B013C012F81A3
:101AE0003885B901330F880B990B0E9447469B013B
:101AF000AC01C301B2010E9417412B013C013B81A3
:101B00003F834C814887EF81F885BF01FF0F880B29
:101B1000990B0E9447469B01AC01C301B2010E9490
:101B2000414687FD1AC020915B0430915C043887E0
:101B30002F83B901330F880B990B0E9447469B01F5
:101B4000AC01C301B2010E941A43181634F0C3015C
:101B5000B2010E945F4278876F8320916B043091BD
:101B60006C0440916D0450916E04C501B4010E9453
:101B7000A6464B015C0149815A81BA01550F880B79
:101B8000990B0E9447469B01AC01C501B4010E941C
:101B900017414B015C010D811E81B801012E000C23
:101BA000880B990B0E9447469B01AC01C501B4010B
:101BB0000E94414687FD18C000915D0410915E04AB
:101BC000B801012E000C880B990B0E9447469B011F
:101BD000AC01C501B4010E941A4318162CF0C501CE
:101BE000B4010E945F428B0120916F043091700418
:101BF0004091710450917204C701B6010E94A6463B
:101C00006B017C01B101330C880B990B0E94474694
:101C10009B01AC01C701B6010E9417416B017C0119
:101C2000A0906504B0906604B5010B2C000C880BE5
:101C3000990B0E9447469B01AC01C701B6010E9467
:101C4000414687FD18C0A0905F04B0906004B501C4
:101C50000B2C000C880B990B0E9447469B01AC0192
:101C6000C701B6010E941A4318162CF0C701B6012D
:101C70000E945F425B01B501660F771F7093890078
:101C800060938800000F111F10938B0000938A004F
:101C90008F81988539C08B819C816F817885681789
:101CA000790744F080915B0490915C046817790790
:101CB0000CF4CB012D813E81E981FA81E217F30713
:101CC00044F020915D0430915E04E217F3070CF4B8
:101CD0009F0140916504509166042416350644F036
:101CE00040915F0450916004241635060CF4A10164
:101CF000440F551F5093890040938800220F331FD3
:101D000030938B0020938A00880F991F90938D0049
:101D100080938C0028960FB6F894DEBF0FBECDBF1F
:101D2000DF91CF911F910F91FF90EF90DF90CF90B7
:101D3000BF90AF909F908F907F906F905F904F90EB
:101D40003F902F9008954F925F926F927F928F9263
:101D50009F92AF92BF92CF92DF92EF92FF920F933A
:101D60001F93CF93DF93CDB7DEB728970FB6F894C4
:101D7000DEBF0FBECDBF4091200850912108609179
:101D800022087091230880911E0890911F08A0914D
:101D90001C08B0911D08A0901A08B0901B088090F4
:101DA000180890901908E0911708EE2309F4E5C18E
:101DB0009A01AB01281B390B410951090E94734755
:101DC0006B017C01FFE0F594E794D794C794FA95F2
:101DD000D1F76E2F70E080E090E00E9447469B01B3
:101DE000AC016091130870911408809115089091CE
:101DF00016080E94F7410E945F422B013C0160934C
:101E00000F08709310088093110890931208109295
:101E100013081092140810921508109216081092C8
:101E20001708C501BB0CAA0BBB0BBC01CD01ABE075
:101E3000660F771F881F991FAA95D1F78401990C07
:101E4000220B330BA90198012C0D3D1D4E1D5F1D6A
:101E50000E94EC40C20ED31EE41EF51E20EAC21AF8
:101E60002FE0D20AE108F108A7019601C701B601E7
:101E70000E94BB409B01AC01BCE05595479537954E
:101E80002795BA95D1F729833A834B835C830091D8
:101E9000090810910A08E0912202A0910708B09168
:101EA0000808A70196010E9410414B015C018DE0DA
:101EB000B594A794979487948A95D1F7A091050833
:101EC000B091060829813A814B815C810E941041C2
:101ED000BB2797FDB095AB2F880D991DAA1DBB1D83
:101EE0000296A11DB11D32E0B595A79597958795EE
:101EF0003A95D1F79C01AD0130584F4F5F4FA091FB
:101F00000308B09104080E9473474B015C014FE045
:101F1000B694A794979487944A95D1F7C801110F66
:101F2000AA0BBB0B9C01AD0162E0220F331F441FC3
:101F3000551F6A95D1F72D833E834F835887A09113
:101F40000D08B0910E0829813A814B815C810E9475
:101F500010419B01AC017BE055954795379527953E
:101F60007A95D1F729833A834B835C83A0910B0840
:101F7000B0910C08A70196010E941041DC01CB0131
:101F8000FBE0B595A79597958795FA95D1F72981A7
:101F90003A814B815C81820F931FA41FB51F2D8155
:101FA0003E814F815885820F931FA41FB51F0E2EAF
:101FB00004C0880F991FAA1FBB1F0A94D2F702966C
:101FC000A11DB11D12E0B595A795979587951A9516
:101FD000D1F7A3019201281B390B4A0B5B0B80E55B
:101FE00093ECA0E0B0E0BC01CD0104C095958795CD
:101FF00077956795EA95D2F70E94BB4097FD0BC095
:10200000660F771F881F991FA50194010E94CA407F
:1020100069017A010AC0A50194010E94CA406901C0
:102020007A01CC0CDD1CEE1CFF1C9927F7FC9A955D
:102030008F2D7E2D6D2D9B01AC010E94BB409B011D
:10204000AC01AEEDBBE00E9473474C01BB2497FC92
:10205000B094AB2CA3E4B3EEA70196010E94124109
:10206000BB2797FDB095AB2F880D991DAA1DBB1DF1
:102070008153914FAF4FBF4F44E0B595A7959795CA
:1020800087954A95D1F7BC01CD016C0D7D1D8E1D44
:102090009F1D6093FF077093000880930108909341
:1020A0000208C0901E02D0901F02E0902002F09023
:1020B00021020E94474620E836EE45EC57E40E9494
:1020C000F741A70196010E9425439B01AC0160E006
:1020D00070E080E89FE30E94164120E03AE24DE282
:1020E00057E40E94A6466B017C016093FB07709346
:1020F000FC078093FD079093FE0780900902909063
:102100000A02A0900B02B0900C0240900A0450907A
:102110000B0460900C0470900D0420E030E040E867
:102120005FE3C501B4010E9441468823F1F0A50197
:10213000940160E070E080E89FE30E9416419B01FB
:10214000AC01C301B2010E94A6462B013C01A501CE
:102150009401C701B6010E94A6469B01AC01C301D0
:10216000B2010E9417416B017C01C0920A04D09217
:102170000B04E0920C04F0920D0428960FB6F8942C
:10218000DEBF0FBECDBFDF91CF911F910F91FF90AA
:10219000EF90DF90CF90BF90AF909F908F907F9007
:1021A0006F905F904F900895CF92DF92EF92FF92E1
:1021B0008091FA0766EF882309F474C087E790E0FE
:1021C0000E94B01B63E070E087E790E00E94C51DAD
:1021D0008EE799E00E9414026C018EE799E00E945C
:1021E00014020D2C000CEE08FF087601DD24CC242F
:1021F000092E000CAA0BBB0BBA2FA92F982F8827EA
:10220000C82AD92AEA2AFB2A8EE799E00E941402FA
:10221000AC01990F660B770BD701C601842B952B68
:10222000A62BB72B4091220228E030E0241B310975
:10223000BC01CD0104C096958795779567952A9541
:10224000D2F70E9447469B01AC0160911308709140
:10225000140880911508909116080E941741609308
:1022600013087093140880931508909316088091B2
:1022700017088F5F809317088091F907843059F40D
:102280004EE264EF87E790E00E944A1B1092F90744
:102290001092FA0701C064DB8091F9078F5F809389
:1022A000F90726C087E790E00E94B01B62E070E06B
:1022B00087E790E00E94C51D8EE799E00E94140216
:1022C000F82E8EE799E00E94140220E030E03F2DC6
:1022D000822B932BA0E0B0E08093200890932108FC
:1022E000A0932208B09323083BDB81E08093FA0798
:1022F000FF90EF90DF90CF900895CF92DF92EF9212
:10230000FF92CF93DF93C9E1D0E0C12CD12C7601AD
:102310004BDF19DD2091FB073091FC074091FD0751
:102320005091FE07C701B6010E9417416B017C0165
:102330006CE070E080E090E00E94C81A219741F7BD
:1023400020E030E048EC51E4C701B6010E94F741BB
:102350006093060470930704809308049093090423
:10236000DF91CF91FF90EF90DF90CF9008958F9203
:102370009F92AF92BF92CF92DF92EF92FF9281E055
:10238000809322021092FF07109200081092010819
:10239000109202081092060410920704109208048A
:1023A000109209048EEA9CEDA2E4BEE380931E0223
:1023B00090931F02A0932002B093210260ED87E763
:1023C00090E00E94B01B61E070E087E790E00E941F
:1023D000C51D8EE799E00E941402853589F480912D
:1023E000600390916103A0916203B09163038860E0
:1023F0008093600390936103A0936203B09363039F
:102400006AEA87E790E00E94B01B66E170E087E728
:1024100090E00E94C51D0E949F1B90930A08809324
:1024200009080E949F1B90930C0880930B080E9440
:102430009F1B90930808809307080E949F1B90930E
:102440000408809303080E949F1B90931D088093AB
:102450001C080E949F1B90931F0880931E080E94D7
:102460009F1B90930608809305080E949F1B9093E2
:102470000E0880930D080E949F1B9093F80780938D
:10248000F7070E949F1B90931B0880931A080E94D5
:102490009F1B90931908809318084EE264EF87E71A
:1024A00090E00E944A1B1092FA071092F9077CDE16
:1024B0004ADC65E070E080E090E00E94C81A74DEBB
:1024C00042DC6AE070E080E090E00E94C81A15DF0C
:1024D0008090060490900704A0900804B09009042E
:1024E000A50194016091FB077091FC078091FD07A5
:1024F0009091FE070E9416416B017C0120E030E0C4
:10250000A9010E941A4318167CF420E030E040E252
:1025100051E4C701B6010E941A4318167CF46AE11F
:1025200070E080E090E0D1CF20E030E040E251EC7C
:10253000C701B6010E94414687FDF1CF80920A048F
:1025400090920B04A0920C04B0920D04FF90EF90B7
:10255000DF90CF90BF90AF909F908F9008952F9273
:102560003F924F925F926F927F928F929F92AF9223
:10257000BF92CF92DF92EF92FF920F931F93CF9370
:10258000DF93CDB7DEB760970FB6F894DEBF0FBE0E
:10259000CDBF2B013C0149015A0163E08EE190E07F
:1025A0000E94B01B66E070E08EE190E00E94C51DC5
:1025B0000E949F1B0CED17E0919581959109BC013C
:1025C000990F880B990B0E944746D8016D937D9314
:1025D0008D939C9313970E949F1B919581959109D0
:1025E000BC01990F880B990B0E944746F801608740
:1025F0007187828793870E949F1BBC01990F880B6C
:10260000990B0E944746D80114966D937D938D9344
:102610009C93179741E062E08EE190E00E944A1B94
:102620008BE7282E84E0382EF10120813181428110
:102630005381D8016D917D918D919C910E9417419C
:102640006B017C016093F3077093F4078093F507A7
:102650009093F607F1012481358146815781D80195
:1026600014966D917D918D919C9117970E941741C1
:1026700069837A838B839C836093EF077093F00761
:102680008093F1079093F207F1012085318542850F
:102690005385D80118966D917D918D919C911B97D2
:1026A0000E9417416D837E838F8398876093EB0729
:1026B0007093EC078093ED079093EE07E2E4F4E06B
:1026C000C082D182E282F38289819A81AB81BC810E
:1026D00084839583A683B7838D819E81AF81B885DE
:1026E00080879187A287B387C301B2010E94F4411A
:1026F00069877A878B879C87C301B2010E947143E7
:102700002B013C01C501B4010E94F4419B01AC01C5
:10271000C501B4012D873E874F87588B0E947143B6
:102720004B015C012D853E854F855889C701B60157
:102730000E94A6466B017C01A301920169817A8106
:102740008B819C810E94A646A50194010E94A64609
:102750009B01AC01C701B6010E9417416B017C01CE
:1027600029853A854B855C856D817E818F81988531
:102770000E94A646A50194010E94A6469B01AC01B9
:10278000C701B6010E9417416B017C0129853A857A
:102790004B855C8569817A818B819C810E94A646EC
:1027A0004B015C01A30192016D817E818F8198852F
:1027B0000E94A6469B01AC01C501B4010E941641CE
:1027C0004B015C01A7019601C701B6010E94A64614
:1027D0002B013C01A5019401C501B4010E94A6464C
:1027E0009B01AC01C301B2010E9417410E947B43CF
:1027F0002B013C019B01AC01C701B6010E94F741CE
:10280000609358037093590380935A0390935B032A
:10281000C501B4019058A30192010E94F741609351
:102820005C0370935D0380935E0390935F036096F7
:102830000FB6F894DEBF0FBECDBFDF91CF911F91D1
:102840000F91FF90EF90DF90CF90BF90AF909F904F
:102850008F907F906F905F904F903F902F90089552
:102860006AE070E080E090E093D68EE190E030D7AF
:10287000803189F48091600390916103A09162039B
:10288000B091630384608093600390936103A0938D
:102890006203B093630340E261E08EE190E0FAD618
:1028A00064E170E080E090E073D641E062E08EE1A8
:1028B00090E0F0D664E170E080E090E069D620E03E
:1028C00030E0A901CA01B9014ACE880F991F90933F
:1028D0009B0080939A0090939D0080939C0090931E
:1028E0009900809398009093A9008093A80020916C
:1028F0000002309101022630310519F028303105EF
:1029000099F49093AB008093AA009093AD008093CC
:10291000AC002830310541F4909389008093880001
:1029200090938B0080938A0008958091F603909194
:10293000F703880F991F90939B0080939A008091D2
:10294000F8039091F903880F991F90939D0080934D
:102950009C008091FA039091FB03880F991F90933C
:102960009900809398008091FC039091FD03880F5B
:10297000991F9093A9008093A800809100029091E4
:1029800001028630910519F08830910551F52091AA
:10299000FE033091FF03220F331F3093AB002093CF
:1029A000AA002091000430910104220F331F3093BC
:1029B000AD002093AC000897A1F48091020490919F
:1029C0000304880F991F9093890080938800809159
:1029D000040490910504880F991F90938B008093B5
:1029E0008A0008951F920F920FB60F9211240BB612
:1029F0000F923F924F925F926F927F928F929F922F
:102A0000AF92BF92CF92DF92EF92FF920F931F93FC
:102A10002F933F934F935F936F937F938F939F93E6
:102A2000AF93BF93CF93DF93EF93FF93ECE7F2E085
:102A3000A591B4918C91C091E807C8278093E807CD
:102A400080916D003C2E382209F46FC07CD540E0A7
:102A500050E0A1E0B0E0DBE020E2C22E21EDD22E7A
:102A6000EE24EA94FE2CBB24B3949D01042E01C0F5
:102A7000220F0A94EAF7E32DE22309F44BC03091C8
:102A8000E8072323D49FF001D59FF00D1124ED56C4
:102A9000FC4F2223D9F0058116812781308561837F
:102AA00072838383948336014701601A710A820A14
:102AB000930A94018301060F171F281F391F013E37
:102AC0001E422105310578F5B08224C001811281B2
:102AD000238134813B014C01601A710A820A930AF6
:102AE0009401830165837683878390872301340172
:102AF000C6EB4C1AC3E05C0A61087108C6E64C16C6
:102B0000C4E05C066104710428F4A0806624639428
:102B1000A61439F04F5F5F4F4830510509F0A5CF3B
:102B200004C0128701871082F5CFFF91EF91DF91EA
:102B3000CF91BF91AF919F918F917F916F915F9155
:102B40004F913F912F911F910F91FF90EF90DF9048
:102B5000CF90BF90AF909F908F907F906F905F903D
:102B60004F903F900F900BBE0F900FBE0F901F9095
:102B70001895CF93DF9362E383E590E0F1D566E0AB
:102B800070E083E590E00E94C51DC5D5CBE6D3E09B
:102B9000092E000CAA0BBB0B4C815D816E817F81DD
:102BA000840F951FA61FB71F8C839D83AE83BF83A1
:102BB000B2D5092E000CAA0BBB0B488159816A8142
:102BC0007B81840F951FA61FB71F88839983AA83D3
:102BD000BB83A1D5092E000CAA0BBB0B48855985D8
:102BE0006A857B85840F951FA61FB71F88879987E5
:102BF000AA87BB8780916A038F5F80936A03DF9106
:102C0000CF9108958F929F92AF92BF92CF92DF9211
:102C1000EF92FF920F931F93CF93DF93C0E0D0E02A
:102C20000BE017E2C03981E0D80731F0A2DFC8011C
:102C30000197F1F72196F6CFC7E8D4E087E8E82EB0
:102C400083E0F82E0BE613E089909990A990B99053
:102C5000F80160817181828193810E94474620E062
:102C600030E048EC53E40E94F741A50194010E9432
:102C7000A646F70161937193819391937F01F801C7
:102C800011921192119211928F01F4E0C339DF0772
:102C9000D9F610926A038091870390918803A091DE
:102CA0008903B0918A03B058809377039093780397
:102CB000A0937903B0937A0380918B0390918C0356
:102CC000A0918D03B0918E03B05880937B039093B5
:102CD0007C03A0937D03B0937E03C0908F03D090BC
:102CE0009003E0909103F0909203A70196016DE6A6
:102CF00077EE8CE191EC0E9416419B01AC01609350
:102D00007F03709380038093810390938203C701B4
:102D1000B6010E941741DC01CB01BF77809383038A
:102D200090938403A0938503B0938603DF91CF91A2
:102D30001F910F91FF90EF90DF90CF90BF90AF90D9
:102D40009F908F900895CF92DF92EF92FF920F9312
:102D50001F93CF93DF93CDB7DEB7C456D1090FB61B
:102D6000F894DEBF0FBECDBF8E010D591F4FF80185
:102D700011821082F12C8F2D880F9DE1E92EE80E33
:102D8000CE0101966C016E2D88E690E0E9D462E0F8
:102D900070E088E690E0F9D6D2D4F6018193919361
:102DA0006F016AE070E080E090E0F2D3C016D106D7
:102DB00051F7F1100FC0B801CE01019631D7F801DB
:102DC000208131812530310544F59093670380934C
:102DD00066031DC0F1E0B801CE010196FF120CC0E0
:102DE0001FD7F8012081318125303105B4F490934B
:102DF0006503809364030BC013D7F80120813181F0
:102E00002530310554F49093690380936803F3945B
:102E1000F3E0FF12B0CF81E001C080E0CC59DF4F7A
:102E20000FB6F894DEBF0FBECDBFDF91CF911F91DB
:102E30000F91FF90EF90DF90CF9008956091320650
:102E40007091330680913406909135060E94454674
:102E5000E5E1F5E0148A158A168A178A608B718B72
:102E6000828B938B7C9625E0E13AF20799F70895DF
:102E70002F923F924F925F926F927F928F929F928A
:102E8000AF92BF92CF92DF92EF92FF920F931F9378
:102E9000CF93DF93CDB7DEB72A970FB6F894DEBF96
:102EA0000FBECDBF2B013C0129833A834B835C834A
:102EB0001A87098760913206709133068091340633
:102EC000909135060E9445466B017C01D8015096D1
:102ED0002D913D914D915C9153970E94164120E0B8
:102EE00034E244E759E40E94F7414B015C01F801E8
:102EF000C08AD18AE28AF38A29813A814B815C8136
:102F0000C301B2010E9416416D837E838F8398872F
:102F1000809111048823C9F0A50194016D817E81FF
:102F20008F8198850E94A6469B01AC01D8015496DA
:102F30006D917D918D919C9157970E941741F80159
:102F4000648B758B868B978B08C0A985BA85549640
:102F50001D921D921D921C925797E985FA8514893E
:102F6000058936882788C08CD18CE28CF38C2601A9
:102F7000370177FA709477F87094A3019201612F6A
:102F8000702F832D922D0E94414687FD11C0A7010D
:102F90009601612F702F832D922D0E941A431816CF
:102FA0004CF0812F902FA32DB22D6C017D0102C01A
:102FB00073016201A985BA855496CD92DD92ED9296
:102FC000FC9257971C962D913D914D915C911F97C6
:102FD00069817A818B819C810E941641E985FA85FD
:102FE00020853185428553850E94A6462B013C01F0
:102FF00020E030E048EC52E4C501B4010E94A6464E
:103000009B01AC01C301B2010E94F7414B015C017D
:1030100089819A81AB81BC81E985FA85848795870E
:10302000A687B78720813181428153816D817E815E
:103030008F8198850E94A6462B013C01A985BA85FF
:1030400014962D913D914D915C911797C701B60152
:103050000E94A6469B01AC01C301B2010E94174128
:10306000A50194010E9417412A960FB6F894DEBF7D
:103070000FBECDBFDF91CF911F910F91FF90EF90C9
:10308000DF90CF90BF90AF909F908F907F906F9088
:103090005F904F903F902F900895CF92DF92EF92E4
:1030A000FF920F931F93CF93DF936C017A018B01F3
:1030B000C0E0D0E0CE15DF0589F0D8016D918D011B
:1030C000D601ED91FC910190F081E02DC60119959A
:1030D000892B11F47E0102C02196ECCFC701DF914C
:1030E000CF911F910F91FF90EF90DF90CF900895B7
:1030F000FC01918D828D981761F0828DDF01A80F00
:10310000B11D5D968C91928D9F5F9F73928F90E021
:1031100008958FEF9FEF0895FC01918D828D981790
:1031200031F0828DE80FF11D858D90E008958FEFCD
:103130009FEF0895FC01918D228D892F90E0805C96
:103140009F4F821B91098F739927089581EE98E014
:10315000F1DF21E0892B09F420E0822F0895FC01A2
:10316000848DDF01A80FB11DA35ABF4F2C91848D10
:1031700090E001968F739927848FA689B7892C9345
:10318000A089B1898C9180648C93938D848D9813E0
:1031900006C00288F389E02D80818F7D80830895A9
:1031A000EF92FF920F931F93CF93DF93EC0181E097
:1031B000888F9B8D8C8D981305C0E889F989808153
:1031C00085FD23C0F62E0B8D10E00F5F1F4F0F7390
:1031D0001127E02E8C8DE8120BC00FB607FCFACF3A
:1031E000E889F989808185FFF5CFCE01B8DFF2CF7C
:1031F0008B8DFE01E80FF11DE35AFF4FF0820B8F1C
:10320000EA89FB898081806207C0EE89FF8960833B
:10321000E889F98980818064808381E090E0DF9192
:10322000CF911F910F91FF90EF900895CF93DF936F
:10323000EC01888D8823C1F0EA89FB89808185FDB6
:1032400005C0A889B9898C9186FD0EC00FB607FC10
:10325000F5CF808185FFF2CFA889B9898C9185FF50
:10326000EDCFCE017CDFE8CFDF91CF91089580E0F4
:1032700090E0892B19F06ADF811125C080E090E091
:10328000892B41F080E090E0892B21F00E94000022
:1032900081111CC080E090E0892B41F080E090E03B
:1032A000892B21F00E940000811113C080E090E082
:1032B000892BA1F080E090E0892B81F00E94000032
:1032C00081110AC008950E940000D8CF0E9400001A
:1032D000E1CF0E940000EACF0C940000089585ED34
:1032E0008093BC008091BC0084FDFCCF1092BC0890
:1032F00008950895E091750880917408E81730F4F6
:10330000F0E0EA58F74F808190E008958FEF9FEF4B
:1033100008950E94B4441F920F920FB60F92112489
:103320000BB60F922F933F934F935F936F937F93BF
:103330008F939F93AF93BF93EF93FF9381EE98E0AA
:103340000EDFFF91EF91BF91AF919F918F917F9190
:103350006F915F914F913F912F910F900BBE0F9006
:103360000FBE0F901F9018951F920F920FB60F92DD
:1033700011240BB60F922F938F939F93EF93FF938C
:10338000E091F108F091F2088081E091F708F09166
:10339000F80882FD12C090818091FA088F5F8F73C8
:1033A0002091FB08821751F0E091FA08F0E0EF510C
:1033B000F74F958F8093FA0801C08081FF91EF91BC
:1033C0009F918F912F910F900BBE0F900FBE0F907A
:1033D0001F901895362F90E0FC01E05CFC4F449163
:1033E000FC01E650FD4F2491FC01EC54FD4F9491FB
:1033F000992309F46BC0442309F455C050E0FA0145
:103400003197E231F10508F04EC08827E456FF4FAE
:103410008F4F0C940841809180008F7707C0809176
:1034200080008F7D03C080918000877F8093800023
:103430003AC084B58F7702C084B58F7D84BD33C018
:103440008091B0008F7703C08091B0008F7D809312
:10345000B00029C0809190008F7707C080919000C4
:103460008F7D03C080919000877F809390001BC068
:103470008091A0008F7707C08091A0008F7D03C04E
:103480008091A000877F8093A0000DC080912001D3
:103490008F7707C0809120018F7D03C0809120012C
:1034A000877F80932001E92FF0E0EE0FFF1FE656A3
:1034B000FD4FA591B4918FB7F894EC91311103C0F1
:1034C00020952E2301C02E2B2C938FBF0895CF93D0
:1034D000DF9390E0FC01E650FD4F2491FC01EC5499
:1034E000FD4F8491882361F190E0880F991FFC01C2
:1034F000E058FD4FC591D491FC01E656FD4FA591D2
:10350000B491611109C09FB7F894888120958223F6
:103510008883EC912E230BC0623061F49FB7F8943E
:103520003881822F809583238883EC912E2B2C93D6
:103530009FBF06C08FB7F894E8812E2B28838FBFDA
:10354000DF91CF9108953FB7F894809170089091E2
:103550007108A0917208B091730826B5A89B05C0A8
:103560002F3F19F00196A11DB11D3FBFBA2FA92F02
:10357000982F8827820F911DA11DB11DBC01CD017F
:1035800042E0660F771F881F991F4A95D1F708956B
:103590008F929F92AF92BF92CF92DF92EF92FF9263
:1035A0006B017C01D0DF4B015C01C114D104E1044B
:1035B000F104E9F0C8DFDC01CB0188199909AA09F7
:1035C000BB09883E9340A105B10578F321E0C21AFA
:1035D000D108E108F10888EE880E83E0981EA11C4E
:1035E000B11CC114D104E104F10421F7DECFFF9036
:1035F000EF90DF90CF90BF90AF909F908F90089505
:103600001F920F920FB60F9211242F933F938F9317
:103610009F93AF93BF9380916C0890916D08A09198
:103620006E08B0916F0830916B0823E0230F2D379F
:1036300020F40196A11DB11D05C026E8230F0296B6
:10364000A11DB11D20936B0880936C0890936D08A9
:10365000A0936E08B0936F088091700890917108E4
:10366000A0917208B09173080196A11DB11D8093BD
:10367000700890937108A0937208B0937308BF917B
:10368000AF919F918F913F912F910F900FBE0F900F
:103690001F901895CF93DF931F92CDB7DEB791E0BF
:1036A0009093BD088093DF081092BE081092E00846
:1036B0008EE799E049830E9460024981642F8EE77A
:1036C00099E00E94600281E00F90DF91CF9100C2EB
:1036D000CF93DF93EC0181E08093BD08C093DF08B6
:1036E0001092BE081092E00860E08EE799E00E9418
:1036F000600281E0EDD164E670E080E090E048DFB8
:1037000061E070E0CE0141D28EE799E00E941402A0
:10371000DF91CF910895CF93DF938EE799E00E94D8
:103720001402EC018EE799E00E94140220E030E0E0
:10373000382FC9018C2B9D2BDF91CF910895CF930A
:103740008EE799E00E941402C82F8EE799E00E944C
:10375000140220E030E03C2F822B932BCF91089570
:1037600091E09093BD088093DF081092BE081092FC
:10377000E0088EE799E00E94600281E0A9C18F9283
:103780009F92AF92BF92CF92DF92EF92FF92CF9330
:103790004B015C0169017A0120E030E0A9010E943F
:1037A0001A4318164CF420E030E0A901C701B60115
:1037B0000E94414687FD14C020E030E0A901C50108
:1037C000B4010E94414687FF0DC0C1E020E030E017
:1037D000A901C701B6010E941A43181624F002C0BD
:1037E000C1E001C0C0E08C2FCF91FF90EF90DF903F
:1037F000CF90BF90AF909F908F9008951F920F929F
:103800000FB60F9211240BB60F922F933F934F9345
:103810005F936F937F938F939F93AF93BF93EF9338
:10382000FF938091B900887F803609F49CC068F5C9
:10383000883209F45BC090F4803109F454C038F444
:10384000882309F4F6C0883009F44DC0F5C08831EA
:1038500009F44CC0803209F45DC0EEC0803409F434
:1038600068C048F4803309F455C0883309F0E4C0D7
:103870008093BA08D8C0803509F44FC0883509F460
:103880005DC0883409F0D8C0D6C0883909F4C7C0F3
:10389000A8F4883709F467C038F4883609F463C09F
:1038A000803709F460C0C8C0883809F4B8C08039CE
:1038B00009F45FC0803809F0BFC05BC0803B09F4E9
:1038C00086C038F4803A09F466C0883A09F47FC0AB
:1038D000B3C0803C09F4A7C0883C09F4A4C0883B6D
:1038E00009F48AC0A9C08091970810C09091B908C6
:1038F0008091B808981770F5E091B90881E08E0FB3
:103900008093B908F0E0E856F74F80818093BB00C0
:1039100085EC86C08093BA088EC0E091B90881E03A
:103920008E0F8093B9088091BB00F0E0E856F74F06
:1039300080839091B9088091B8086EC0E091B90871
:1039400081E08E0F8093B9088091BB00F0E0E856CB
:10395000F74F80838091BB0881116DC081E0809317
:10396000960884EA61C083E08093BC0810926A08DC
:10397000CFCF80916A08803208F051C0E0916A0888
:1039800081E08E0F80936A088091BB00F0E0E65BD7
:10399000F74F8083BDCF85EC8093BC001092BC08AC
:1039A00080916A08803230F4E0916A08F0E0E65BCA
:1039B000F74F108260916A0870E0E0914808F0913A
:1039C00049088AE498E0199510926A0835C084E0A5
:1039D0008093BC081092470810924608E091440872
:1039E000F0914508199580914608811105C081E044
:1039F0008093460810922408E091470881E08E0FDA
:103A000080934708F0E0EC5DF74F80818093BB0026
:103A10009091470880914608981708F479CF85E877
:103A20008093BC0009C085EC8093BC001092BC0858
:103A300003C01092BA0853DCFF91EF91BF91AF9190
:103A40009F918F917F916F915F914F913F912F91B6
:103A50000F900BBE0F900FBE0F901F9018954091C6
:103A60004608262F30E0240F311D21323105DCF4C9
:103A70002091BC082430C9F4FC0180E090E0861756
:103A800058F4309146082191DC01AC5DB74FA30F8B
:103A9000B11D2C930196F3CF80914608680F609377
:103AA000460880E0089581E0089582E00895009737
:103AB00061F0FC0101900020E9F73197AF01481B4C
:103AC000590BBC0181EE98E0E8CA80E090E00895CF
:103AD000382F2091E0089091DF08213208F049C08A
:103AE0008091BC088111FCCF42E04093BC08309328
:103AF000BB083FEF3093BA081092B9082093B8087A
:103B0000AFEBB8E048E958E0FA013E2F341B32171A
:103B100018F43D913193F9CF1092970820919708AE
:103B2000990F922B9093970890919608913061F499
:103B300010929608909197089093BB009091BC00CA
:103B400093FDF8CF95EC01C095EE9093BC00909159
:103B5000BC089230E1F39091BA089F3F79F08091D0
:103B6000BA08803241F08091BA08803331F084E0A5
:103B700005C081E003C082E001C083E01092BE086E
:103B80001092E0081092BD0808959091BC08911120
:103B9000FCCF613208F060E291E09093BC08909312
:103BA000BB082FEF2093BA081092B908260F209374
:103BB000B8089093970890919708880F892B809365
:103BC000970880919608813061F410929608809150
:103BD00097088093BB008091BC0083FDF8CF85ECF3
:103BE00001C085EE8093BC008091BC088130E1F378
:103BF0008091B908861710F46091B908A8E9B8E077
:103C000026E738E0F9018E2F821B861718F48D9174
:103C10008193F9CF1092750860937408862F0895E8
:103C2000FC0131E020E0A191B191408151814A171E
:103C30005B073CF4B183A083DF0112974D935C9343
:103C400030E02F5F203379F7332351F3FC012081DB
:103C50003181E05AFF4F40815181241B350B37FFE2
:103C600003C0319521953109FB0131832083FC018B
:103C700080A991A90895E091E108F091E2080190EE
:103C8000F081E02D682F81EE98E019948F929F9239
:103C9000AF92BF920F931F93CF93DF93CDB7DEB751
:103CA000A1970FB6F894DEBF0FBECDBF19A2423068
:103CB00008F44AE08E010F5D1F4F842E912CA12C39
:103CC000B12CA50194010E94CA40E62FB901CA0196
:103CD00001501109EA3014F4E05D01C0E95CD8013B
:103CE000EC93232B242B252B61F7C801E0DEA19652
:103CF0000FB6F894DEBF0FBECDBFDF91CF911F91FD
:103D00000F91BF90AF909F908F9008954F925F92C8
:103D10006F927F928F929F92AF92BF92CF92DF92DB
:103D2000EF92FF926B017C01B42E9B01AC010E94CB
:103D3000BC43882319F086E493E027C026013701AD
:103D4000E89477F82FEF3FEF4FE75FE7C301B20149
:103D50000E94BC4381110DC02FEF3FEF4FE75FE79B
:103D6000C301B2010E94414618161CF48AE493E094
:103D70000CC02FEF3FEF4FE75FE4C701B6010E9491
:103D80001A4318167CF48EE493E0FF90EF90DF90D6
:103D9000CF90BF90AF909F908F907F906F905F90EB
:103DA0004F9085CE2FEF3FEF4FE75FECC701B60195
:103DB0000E94414687FDE7CF20E030E0A901C7011E
:103DC000B6010E94414687FF08C08DE254DF4C01D6
:103DD000F7FAF094F7F8F09402C0812C912CA12C02
:103DE00060E070E080E09FE3AB1441F020E030E061
:103DF00040E251E40E94F741A394F6CF9B01AC014D
:103E0000C701B6010E9417412B013C010E94644288
:103E10006B017C010E9445469B01AC01C301B201CC
:103E20000E9416412B013C014AE0C701B6012EDF7A
:103E30007C01E80CF91CBB2029F082E593E037DE19
:103E4000E80EF91EDB2CDD2019F120E030E040E225
:103E500051E4C301B2010E94A6462B013C010E941D
:103E600064424B01A12CB12C4AE0C501B4010EDF24
:103E7000E80EF91EC501B4010E9445469B01AC0144
:103E8000C301B2010E9416412B013C01DA94DBCF41
:103E9000C701FF90EF90DF90CF90BF90AF909F90C1
:103EA0008F907F906F905F904F9008952FCF84E513
:103EB00093E0FDCDCF93DF93FADDEC01F8DF8C0FBB
:103EC0009D1FDF91CF910895F2CDCF92DF92EF92B7
:103ED000FF92CF93DF936C01990FEE08FF08F7FE76
:103EE00010C08DE2C8DEEC0166277727CB016C1984
:103EF0007D098E099F094AE0C9DE7C01EC0EFD1E9A
:103F000005C04AE0C701B601C1DE7C01D0DF8E0DDD
:103F10009F1DDF91CF91FF90EF90DF90CF9008959C
:103F2000CF93DF93F3DEEC01C2DF8C0F9D1FDF9197
:103F3000CF910895CF93DF93CDB7DEB7CE56D10999
:103F40000FB6F894DEBF0FBECDBF789484B5826003
:103F500084BD84B5816084BD85B5826085BD85B52D
:103F6000816085BD80916E00816080936E001092AB
:103F70008100809181008260809381008091810026
:103F800081608093810080918000816080938000B7
:103F90008091B10084608093B1008091B000816015
:103FA0008093B00080919100826080939100809115
:103FB0009100816080939100809190008160809356
:103FC00090008091A10082608093A1008091A10067
:103FD00081608093A1008091A00081608093A00007
:103FE0008091210182608093210180912101816073
:103FF0008093210180912001816080932001809134
:104000007A00846080937A0080917A008260809345
:104010007A0080917A00816080937A0080917A00A2
:10402000806880937A001092C100E091F108F091CD
:10403000F20882E08083E091ED08F091EE081082B2
:10404000E091EF08F091F00880E180831092F90888
:10405000E091F508F091F60886E08083E091F3089E
:10406000F091F408808180618083E091F308F09101
:10407000F408808188608083E091F308F091F4086F
:10408000808180688083E091F308F091F40880815A
:104090008F7D808361E08DE01ADA60E08DE09AD94F
:1040A00060E070E080E00E947C0C64E270E081E0FF
:1040B0000E947C0C68E170E082E00E947C0C6CE065
:1040C00070E083E00E947C0C60E370E084E00E947A
:1040D0007C0C6CE370E085E00E947C0C68E470E08E
:1040E00086E00E947C0C64E570E087E00E947C0C16
:1040F0008CE491E00E94EC0C609315027093160220
:10410000809317029093180260E670E088E00E94A6
:104110007C0C80E491E00E94EC0C60930D0670939F
:104120000E0680930F06909310068CE391E00E9498
:10413000EC0C6093090270930A0280930B02909337
:104140000C0284E491E00E94EC0C0E945F427093A8
:1041500014026093130288E491E00E94EC0C0E9428
:104160005F42709312026093110288E391E00E9413
:10417000EC0C0E945F427093100260930F0284E384
:1041800091E00E94EC0C0E945F4270930E026093DB
:104190000D026CE670E089E00E947C0C88E691E0FC
:1041A0000E94EC0C60937B0470937C0480937D04EC
:1041B00090937E048CE691E00E94EC0C60937F0467
:1041C00070938004809381049093820480E791E04F
:1041D0000E94EC0C609383047093840480938504A4
:1041E0009093860488E191E00E94EC0C60932E0687
:1041F00070932F068093300690933106E5E1F5E049
:1042000020E0283021F0608F718F828F938F2F5F95
:104210007C962A30B1F780E291E00E94EC0C0E947B
:104220005F427093100560930F0584E291E00E9455
:10423000EC0C609311057093120580931305909315
:10424000140588E291E00E94EC0C0E9464426093A5
:104250000F0480E391E00E94EC0C60938303709361
:10426000840380938503909386038CE291E00E94FF
:10427000EC0C0E94644260932D0688E891E00E9455
:10428000EC0C0E945F4270937A04609379048CE88E
:1042900091E00E94EC0C60936F0470937004809323
:1042A00071049093720480E991E00E94EC0C609399
:1042B0006B0470936C0480936D0490936E0484E996
:1042C00091E00E94EC0C6093670470936804809303
:1042D000690490936A0488E991E00E94EC0C0E94C2
:1042E0005F4270937804609377048CE991E00E94B8
:1042F000EC0C0E945F42709376046093750480EA30
:1043000091E00E94EC0C0E945F42709374046093F1
:10431000730484EA91E00E94EC0C0E945F42709367
:1043200066046093650488EA91E00E94EC0C0E94A8
:104330005F4270936404609363048CEA91E00E948E
:10434000EC0C0E945F42709362046093610480EB06
:1043500091E00E94EC0C0E945F42709360046093B5
:104360005F0484EB91E00E94EC0C0E945F4270932A
:104370005E0460935D0488EB91E00E94EC0C0E9467
:104380005F4270935C0460935B0484E191E00E945F
:10439000EC0C2DEC3CEC4CE450E40E9441468823AC
:1043A00039F00E94190A0E943908BB24B39401C055
:1043B000B12C61E084E08BD860E084E00BD861E050
:1043C0008FE185D860E08FE105D860E081E27FD899
:1043D00060E082E27CD860E083E279D861E08BE241
:1043E00076D861E08CE273D861E08DE270D861E04C
:1043F0008EE26DD861E08BE20E94EA1961E08CE206
:104400000E94EA1961E08DE20E94EA1961E08EE201
:104410000E94EA1910927508109274081092BE0852
:104420001092E0081092BC0881E08093BB081092C3
:10443000960861E084E10E94EA1961E085E10E944A
:10444000EA198091B9008E7F8093B9008091B900FC
:104450008D7F8093B90088E48093B80085E48093D1
:10446000BC008CE08093B80084E090E0909301025F
:10447000809300028DB188638DB980910002909184
:1044800001028430910521F480910101886006C009
:104490008630910531F48091010188638093010198
:1044A0000AC0089741F4809101018863809301015B
:1044B00084B1806684B988EE93E00E9465148AEA2C
:1044C000809390004AE14093910028E833E13093D3
:1044D0009700209396008091000290910102843011
:1044E000910551F482E88093A0004093A10030939D
:1044F000A7002093A60011C08630910511F00897FF
:1045000061F48AEA8093A0008AE18093A10088E8A0
:1045100093E19093A7008093A60080910002909170
:104520000102089761F482EA809380008AE1809317
:10453000810088E893E1909387008093860088E06B
:1045400090E090934E0780934D078CED95E090930B
:104550001304809312049093150480931404909391
:1045600017048093160488EE93E0909319048093C7
:10457000180490931B0480931A0490931D04809355
:104580001C0490931F0480931E0490932104809335
:104590002004909323048093220490932504809315
:1045A0002404EFE4F7E080E021E030E02193319350
:1045B0008F5F8830D9F78CED95E090934807809312
:1045C000470790934A078093490790934C0780933D
:1045D0004B07FBEBCF2EF4E0DF2EF60180E040E04E
:1045E00050E060E87FE341935193619371938F5F53
:1045F0008830C9F7E3E9EE2EE4E0FE2EF70180E013
:1046000040E050E060E87FE3419351936193719300
:104610008F5F8830C9F7E3EEF4E080E040E050E0DF
:1046200060E87FE341935193619371938F5F88308A
:10463000C9F7109207011092080120916D0081E0E6
:1046400090E000904D0702C0880F991F0A94E2F78E
:104650008150822B80936D008091680084608093EC
:10466000680040914D0750914E0720E03BE0822FBB
:1046700090E08417950764F4FC01ED5DFD4FE08147
:104680003E9FF0011124ED56FC4F10822F5FEFCFBB
:104690008CE191E00E94EC0C60930B0570930C058B
:1046A00080930D0590930E0573EE872E74E0972E80
:1046B0000CE910E0C8010E94EC0CD6016D937D93CB
:1046C0008D939D936D01C80104960E94EC0CF70137
:1046D00061937193819391937F01C80108960E9421
:1046E000EC0CD4016D937D938D939D934D01045FEC
:1046F0001F4F0C3F1105F1F688E690E00E94681B01
:104700008E77883689F48091600390916103A0913F
:104710006203B091630381608093600390936103AF
:10472000A0936203B093630389ED93E2AFE9BAE328
:1047300080934A0690934B06A0934C06B0934D0687
:1047400040E86EE388E690E00E944A1B4DE166E196
:1047500088E690E00E944A1B41E06EE388E690E024
:104760000E944A1B0E94A3168823E1F383E590E090
:104770000E94681B853E89F48091600390916103DB
:10478000A0916203B0916303826080936003909371
:104790006103A0936203B093630348E06DE283E595
:1047A00090E00E944A1B49E061E383E590E00E94AB
:1047B0004A1B4BE06CE283E590E00E944A1B6AE0F2
:1047C00070E080E090E00E94C81ABB2021F00E94B7
:1047D00002160E9439081092C3061092C406109265
:1047E000C5061092C6061092C7061092C80610920F
:1047F000C9061092CA061092CB061092CC061092EF
:10480000CD061092CE061092CF061092D0061092CE
:10481000D1061092D2061092D3061092D4061092AE
:10482000D5061092D6061092D7061092D80610928E
:10483000D9061092DA061092DB061092DC0610926E
:10484000DD061092DE061092DF061092E00610924E
:10485000E1061092E2061092E3061092E40610922E
:10486000E5061092E6061092E7061092E80610920E
:10487000E9061092EA061092EB061092EC061092EE
:10488000ED061092EE061092EF061092F0061092CE
:10489000F1061092F2061092F3061092F4061092AE
:1048A000F5061092F6061092F7061092F80610928E
:1048B000F9061092FA061092FB061092FC0610926E
:1048C000FD061092FE061092FF061092000710924D
:1048D0000107109202078DE697EEACE1B1EC8093F0
:1048E000030790930407A0930507B09306078093EE
:1048F000070790930807A0930907B0930A078093CE
:104900000B0790930C07A0930D07B0930E078093AD
:104910000F0790931007A0931107B093120780938D
:10492000130790931407A0931507B093160780936D
:10493000170790931807A0931907B0931A0780934D
:104940001B0790931C07A0931D07B0931E0780932D
:104950001F0790932007A0932107B093220780E3BD
:1049600091E00E94EC0C6093830370938403809326
:1049700085039093860384E591E00E94EC0C60939C
:104980008704709388048093890490938A0480E557
:1049900091E00E94EC0C609377037093780380930E
:1049A000790390937A038CE591E00E94EC0C60937C
:1049B0008B0470938C0480938D0490938E0488E50F
:1049C00091E00E94EC0C60937B0370937C038093D6
:1049D0007D0390937E0384E691E00E94EC0C60934B
:1049E0008F0470939004809391049093920480E6D6
:1049F00091E00E94EC0C60937F037093800380939E
:104A000081039093820380E090E0A0ECBEE380936A
:104A1000810590938205A0938305B09384058093CC
:104A20009D0590939E05A0939F05B093A0051092BD
:104A30004E0410924F0410925004109251041092A0
:104A40005204109253041092540410925504109280
:104A50005604109257041092580410925904109260
:104A600036061092370610923806109239061092C8
:104A70003A0610923B0610923C0610923D0680E0EA
:104A800090E0A0E8BFE38093830690938406A09310
:104A90008506B093860610928B0610928C061092B3
:104AA0008D0610928E06109287061092880610923C
:104AB000890610928A0610927F0610928006109244
:104AC0008106109282061092770610927806109254
:104AD000790610927A0610926B0610926C0610926C
:104AE0006D0610926E061092630610926406109284
:104AF00065061092660610926F061092700610926C
:104B00007106109272061092670610926806109253
:104B1000690610926A0610925F0610926006109263
:104B20006106109262060DEC1CEC2CE43EE300934F
:104B30005B0610935C0620935D0630935E066FE67D
:104B4000462E62E1562E63E0662E6AE3762E409290
:104B50007306509274066092750670927606809184
:104B6000600390916103A0916203B091630380613F
:104B70008093600390936103A0936203B0936303F7
:104B80000E943014209158033091590340915A03E8
:104B900050915B0360915C0370915D0380915E03B3
:104BA00090915F030E94A14100E010E020E030E816
:104BB0000093AD071093AE072093AF073093B00773
:104BC0001092B1071092B2071092B3071092B40777
:104BD0006093B5077093B6078093B7079093B807B3
:104BE00020E030E040E05FE30E94A6466B017C01DC
:104BF0000E94F4414B015C01C701B6010E94714360
:104C00006B017C0120E030E040E050E80E94A646C5
:104C10006F83788789879A879B01AC01C501B401AE
:104C20000E9417416093A1077093A2078093A30786
:104C30009093A40720E030E040E050E8C501B401C3
:104C40000E94A6466B877C878D879E8720E030E098
:104C5000A901C701B6010E94A6469B01AC016B8564
:104C60007C858D859E850E9416416093A90770936F
:104C7000AA078093AB079093AC0720E030E0A9012E
:104C8000C501B4010E94A6462F81388549855A8501
:104C90000E9417416093A5077093A6078093A7070A
:104CA0009093A8072B853C854D855E85C701B6018D
:104CB0000E94164160939D0770939E0780939F0703
:104CC0009093A0071092950710929607109297075D
:104CD0001092980710928D0710928E0710928F07EE
:104CE000109290071092890710928A0710928B07F2
:104CF00010928C072DEC3CEC4CE45EE3209385078E
:104D00003093860740938707509388074092910716
:104D100050929207609293077092940720938107B4
:104D200030938207409383075093840740923E0656
:104D300050923F0660924006709241060E94B71161
:104D40008091600390916103A0916203B09163032D
:104D500080628093600390936103A0936203B09399
:104D6000630384B1806E84B98AEA809380008AE10B
:104D7000809381008FE39CE9909387008093860065
:104D8000E12CF12C8701A8019701C801B7010E940D
:104D90001E0D8091600390916103A0916203B09118
:104DA000630380688093600390936103A093620320
:104DB000B09363030E94A31A6093D8077093D90736
:104DC0008093DA079093DB0761E08DE00E94EA1997
:104DD000109277070E94A31A2B013C0160933206C0
:104DE0007093330680933406909335068091D807EC
:104DF0009091D907A091DA07B091DB07B301A20126
:104E0000481B590B6A0B7B0B4F83588769877A873E
:104E10004093D4075093D5076093D6077093D70774
:104E20006DE188E690E00E94B01B66E070E088E6E5
:104E300090E00E94C51D0E949F1B6C01990FEE0817
:104E4000FF088091530690915406A0915506B091A9
:104E50005606C80ED91EEA1EFB1EC0925306D092FB
:104E60005406E0925506F09256060E949F1B4C0194
:104E7000990FAA08BB0880914F0690915006A09107
:104E80005106B0915206880E991EAA1EBB1E809232
:104E90004F0690925006A0925106B09252060E9480
:104EA0009F1B092E000CAA0BBB0B4091570650917B
:104EB00058066091590670915A068C019D01040FA5
:104EC000151F261F371F0B871C872D873E870093D2
:104ED0005706109358062093590630935A0610919E
:104EE0004E061F5F10934E060E94B9152F8138851C
:104EF00049855A85203137424105510510F40C94FB
:104F00001A408091D0079091D107A091D207B0911B
:104F1000D3079C01AD012F5F3F4F4F4F5F4F23964B
:104F20002CAF3DAF4EAF5FAF23972093D0073093A8
:104F3000D1074093D2075093D307809143079091B4
:104F40004407A0914507B0914607A3019201281B91
:104F5000390B4A0B5B0BCA01B9010E94454620E0A0
:104F600034E244E759E40E94F7416F87788B898BDC
:104F70009A8B60931A0270931B0280931C02909389
:104F80001D02409243075092440760924507709279
:104F90004607412E512C612C712CC501B401A3018F
:104FA00092010E94EC408091640390916503281B5C
:104FB000390B3A832983C701B601A30192010E94EC
:104FC000EC408091660390916703281B390B3C836A
:104FD0002B836B857C858D859E85A30192010E9424
:104FE000EC408091680390916903821B930B9E8330
:104FF0008D8310924F061092500610925106109217
:1050000052061092530610925406109255061092B2
:105010005606109257061092580610925906109292
:105020005A0610924E0680904A0690904B06A09029
:105030004C06B0904D06AE014F5F5F4F7A010AE219
:1050400014E0D7016D917D917D01072E000C880B36
:10505000990B0E944746A50194010E94A646F801BB
:1050600061937193819391938F01F4E006331F074D
:1050700041F70E94A31A6B017C0100913204109148
:10508000330420913404309135040B8F1C8F2D8F05
:105090003E8F25E33AEF4EE85CE36B8D7C8D8D8D82
:1050A0009E8D0E941A43181664F025E33AEF4EE8ED
:1050B0005CEB6B8D7C8D8D8D9E8D0E94414687FFB4
:1050C00034C08091420690914306A0914406B0916D
:1050D0004506A7019601281B390B4A0B5B0BCA0139
:1050E000B9010E94454620E034E244E759E40E94B9
:1050F000F7419B01AC016B8D7C8D8D8D9E8D0E9447
:10510000A6469B01AC0160914606709147068091CE
:105110004806909149060E94174160934606709395
:1051200047068093480690934906C0924206D09263
:105130004306E0924406F092450640906A03512CE3
:10514000612C712C57E8252E54E0352E07E713E02B
:105150001C870B8707E813E018870F830BE613E023
:1051600027E833E03C8B2B8BD1018D909D90AD9047
:10517000BD901D01EB85FC85C190D190E190F1902F
:10518000FC87EB87D8016D917D918D919C91A30156
:1051900092010E94EC40CA01B9010E944746A50154
:1051A00094010E94A646A70196010E941741EB892F
:1051B000FC896193719381939193FC8BEB8BD80164
:1051C0001D921D921D921D928D01B3E92B16B4E024
:1051D0003B0651F610926A0303EC16E046E3242ED8
:1051E00044E0342EAF81B8852D913D914D915D9174
:1051F000B887AF832B873C874D875E87D8012D9179
:105200003D914D915C9113972B8B3C8B4D8B5E8B1D
:1052100014962D913D914D915C9117972BA73CA72A
:105220004DA75EA71896CD90DD90ED90FC901B9752
:1052300050962D913D914D915C9153972F8B388FC6
:10524000498F5A8F54962D913D914D915C9157976E
:105250002F8F38A349A35AA358964D905D906D9017
:105260007C905B9729E732E348EF5AE36B857C85B6
:105270008D859E850E94A6464B015C0125ED31E897
:1052800041E15BEB6B897C898D899E890E94A646F2
:105290009B01AC01C501B4010E9417414B015C01A7
:1052A0002AE13BE14EE55BE36BA57CA58DA59EA5C0
:1052B0000E94A6469B01AC01C501B4010E941741A2
:1052C0004B015C0125ED31E841E15BEBC701B60123
:1052D0000E94A6469B01AC01C501B4010E94174182
:1052E0004B015C0129E732E348EF5AE3F80164859A
:1052F0007585868597850E94A6469B01AC01C501F0
:10530000B4010E9417414B015C0128E33FE247E5ED
:1053100050E46F89788D898D9A8D0E94A6469B01F5
:10532000AC01C501B4010E9417414B015C0120E2B0
:105330003BE049E850E46F8D78A189A19AA10E94D1
:10534000A6469B01AC01C501B4010E9416414B0168
:105350005C012AE037E74CE150E4C301B2010E944E
:10536000A6469B01AC01C501B4010E9417414B0147
:105370005C012CE433EF46E05FE3D8015C966D916D
:105380007D918D919C915F970E94A6469B01AC01F7
:10539000C501B4010E941641F801C486D586E6868F
:1053A000F7862BA53CA54DA55EA5208731874287B2
:1053B00053872B893C894D895E89248335834683B5
:1053C00057832B853C854D855E85208331834283C1
:1053D0005383448E558E668E778E2F8D38A149A1CA
:1053E0005AA1208F318F428F538F2F89388D498D4D
:1053F0005A8D248B358B468B578B608B718B828BB0
:10540000938BD1016D937D938D939D931D01005ED0
:105410001F4FEF81F885E359F34009F0E3CE409147
:105420003E0450913F0460914004709141044BA7A9
:105430005CA76DA77EA760913A0470913B048091B0
:105440003C0490913D046F8F78A389A39AA3809127
:10545000360490913704A0913804B09139048BA39D
:105460009CA3ADA3BEA300912E0410912F04209104
:1054700030043091310427960CAF1DAF2EAF3FAFF3
:10548000279720912A0430912B0440912C045091AD
:105490002D042BAF3CAF4DAF5EAF20E030E040E0DD
:1054A0005FE36F85788989899A890E94A6466F8B08
:1054B000788F898F9A8F60937B0670937C06809398
:1054C0007D0690937E062BA13CA14DA15EA1CA0151
:1054D000B9010E94A6466B017C012F8D38A149A11C
:1054E0005AA1CA01B9010E94A6469B01AC01C7019D
:1054F000B6010E9417416B017C012BA53CA54DA56F
:105500005EA5CA01B9010E94A6469B01AC01C70174
:10551000B6010E9417410E947B436B017C019B01F5
:10552000AC016BA17CA18DA19EA10E94F7416FA748
:1055300078AB89AB9AABA70196016F8D78A189A151
:105540009AA10E94F7416BAB7CAB8DAB9EABA701E0
:1055500096016BA57CA58DA59EA50E94F7416FA322
:1055600078A789A79AA740918B0650918C066091E5
:105570008D0670918E064F83588769877A87609170
:105580007F067091800680918106909182066B87DC
:105590007C878D879E878091830690918406A09159
:1055A0008506B09186068F87988BA98BBA8B009160
:1055B0008706109188062091890630918A060B8B08
:1055C0001C8B2D8B3E8B2B853C854D855E856F819D
:1055D000788589859A850E94A6466B017C012B8976
:1055E0003C894D895E896F85788989899A890E946D
:1055F000A6469B01AC01C701B6010E9416419B0162
:10560000AC010E9417416FAB78AF89AF9AAF2F8181
:10561000388549855A856F85788989899A890E9454
:10562000A6466B017C012B853C854D855E856B898B
:105630007C898D899E890E94A6469B01AC01C70189
:10564000B6010E9417419B01AC010E9417416B01FA
:105650007C012F85388949895A89CA01B9010E947C
:10566000A6464B015C012F81388549855A85CA01C0
:10567000B9010E94A6469B01AC01C501B4010E947C
:1056800016414B015C012B893C894D895E89CA0119
:10569000B9010E94A6469B01AC01C501B4010E945C
:1056A00016414B015C012B853C854D855E85CA0109
:1056B000B9010E94A6469B01AC01C501B4010E943C
:1056C00017414B015C012FA138A549A55AA5C70177
:1056D000B6010E94A6462B013C012BA93CA94DA96D
:1056E0005EA9C501B4010E94A6469B01AC01C3019D
:1056F000B2010E9416412B013C012FA538A949A9EE
:105700005AA9C501B4010E94A6464B015C012FA114
:1057100038A549A55AA56FA978AD89AD9AAD0E9463
:10572000A6469B01AC01C501B4010E9416416FA3BE
:1057300078A789A79AA72BA93CA94DA95EA96FA90B
:1057400078AD89AD9AAD0E94A6464B015C012FA5AC
:1057500038A949A95AA9C701B6010E94A6469B01CA
:10576000AC01C501B4010E9416414B015C01C0901F
:105770007306D0907406E0907506F0907606A70147
:105780009601C301B2010E94A6469B01AC01609143
:105790007706709178068091790690917A060E943A
:1057A00017416093770670937806809379069093FB
:1057B0007A0660916F0670917006809171069091E3
:1057C0007206A30192010E94BF1B882341F0109230
:1057D0007706109278061092790610927A06409217
:1057E0006F06509270066092710670927206A70161
:1057F00096016FA178A589A59AA50E94A6469B014E
:10580000AC0160916B0670916C0680916D06909171
:105810006E060E94174160936B0670936C0680932E
:105820006D0690936E066091670670916806809190
:10583000690690916A062FA138A549A55AA50E942C
:10584000BF1B882341F010926B0610926C061092D9
:105850006D0610926E062FA138A549A55AA5209372
:105860006706309368064093690650936A06A7015D
:105870009601C501B4010E94A6469B01AC0160914E
:1058800063067091640680916506909166060E9499
:105890001741609363067093640680936506909346
:1058A000660660915F067091600680916106909136
:1058B0006206A50194010E94BF1B882341F010924B
:1058C0006306109264061092650610926606809236
:1058D0005F0690926006A0926106B0926206C09048
:1058E0005B06D0905C06E0905D06F0905E06A3013A
:1058F0009201C701B6010E94A6469B01AC016BADA7
:105900007CAD8DAD9EAD0E94174120917706309100
:1059100078064091790650917A060E9417412B0132
:105920003C012FA138A549A55AA5C701B6010E947F
:10593000A6469B01AC0127966CAD7DAD8EAD9FADAB
:1059400027970E94174120916B0630916C06409179
:105950006D0650916E060E9417416FA378A789A724
:105960009AA7A5019401C701B6010E94A6469B0112
:10597000AC016B8D7C8D8D8D9E8D0E941741209189
:1059800063063091640640916506509166060E9458
:1059900017416B017C016F81788589859A859058C4
:1059A000A30192010E94A6464B015C012FA138A5DC
:1059B00049A55AA56B897C898D899E890E94A64636
:1059C0009B01AC01C501B4010E9416414B015C0171
:1059D000A70196016B857C858D859E850E94A646D4
:1059E0009B01AC01C501B4010E9416412F89388D7D
:1059F000498D5A8D0E94A6469B01AC016F8578891E
:105A000089899A890E9417416FA778AB89AB9AABB5
:105A1000A30192016F85788989899A890E94A64697
:105A20004B015C01A70196016B897C898D899E8958
:105A30000E94A6469B01AC01C501B4010E9417411A
:105A40004B015C012FA138A549A55AA56B857C8522
:105A50008D859E850E94A6469B01AC01C501B401BF
:105A60000E9416412F89388D498D5A8D0E94A64675
:105A70009B01AC016F81788589859A850E941741C9
:105A80006BAB7CAB8DAB9EAB2FA138A549A55AA5BE
:105A90006F85788989899A890E94A6464B015C01A5
:105AA000A70196016F81788589859A850E94A6460F
:105AB0009B01AC01C501B4010E9416414B015C0180
:105AC000A30192016B857C858D859E850E94A646EB
:105AD0009B01AC01C501B4010E9417412F89388D8B
